:0400000085EF00F098
:100008000149014901490149014901490149014998
:100018000149014901490149014901490149014988
:100028000149014901490149014901490149014978
:100038000149014901490149014901490149014968
:100048000149014901490149014901490149014958
:100058000149014901490149014901490149014948
:100068000149014901490149014901490149014938
:1000780001490149014901494200F646014901493E
:100088000149014901490149014901490149014918
:100098003C48524801490149420001490149014986
:1000A80001490149014901490149014901490149F8
:1000B80001490149014901490149014901490149E8
:1000C80001490149014901490149014901490149D8
:1000D80001490149014901490149014901490149C8
:1000E80042000149014901490149014901490149C0
:1000F80001490149014901490149014901490149A8
:06010800FF0017EF91F06B
:107FE00000C34000C357270000C343000000000047
:107FF00000C34B000000000000C35300000000005D
:1080000000C35B000000000000C900000000000089
:1080100000C36B000000000000C3730000000000FC
:1080200000C37E00220EFF2A00FF182E220EFF2A18
:1080300002FF1826220EFF2A04FF181E220EFF2A16
:1080400006FF1816220EFF2A08FF180E220EFF2A1E
:108050000AFF1806220EFF2A0CFFE52A0EFFC9F3BD
:108060003100FF2100802210FF2217FF2215FF227E
:108070005EFF2260FF3E493219FF21252E2200FFBC
:1080800021172E2202FF21202E2204FF217D002213
:1080900006FF217D002208FF210E27220AFF219BD7
:1080A00027220CFFAF211CFF061A772310FC21C0EA
:1080B000FE2230FF2100802232FF06083E2E21736F
:1080C000FF772310FCAF770614214AFFAF77231008
:1080D000FC3E493244FF3E4E3243FF2E00652245AE
:1080E000FFAF3249FF210080224CFF2250FF225473
:1080F000FF2258FF225CFF7E324BFF324FFF32538C
:10810000FF3257FF325BFF21712BCDD225AF327C7E
:10811000FF21BD2BCDD225CD3226CDBC26B728EDF3
:10812000FE41CAE819FE44CA4A07FE47CA3214FE95
:1081300053CAF414FE4CCA6A15FE50CA6C16FE529D
:10814000CA4417FE23CA8501FE42CA2003FE54CA50
:10815000CA03FE3F280821DA2BCDD22518AF218E85
:1081600029CDD22518A723CDBC26B728E9FE4C2857
:1081700025CDBB0238E079FE11D27501B7CA750171
:108180003D1716005F21D301195E2356EB5E23567F
:108190007AB328C2EBE921D3015E235623D5DDE172
:1081A000DD7E00DDB60128091313EBCDD225EB18D7
:1081B000E8C32C01F30107021D023F0263027702AC
:1081C0008D029E02B102B102B102B102B102B1024E
:1081D000B102B102002F312E2047424153494320C2
:1081E00053746172740D0A00032F322E20474241EE
:1081F00053494320526573746172740D0A00004C38
:10820000332E2050616C6F20416C746F2054696E66
:10821000792042415349432053746172740D0A001E
:10822000034C342E2050616C6F20416C746F2054CD
:10823000696E7920424153494320526573746172DB
:10824000740D0A000054352E2047414D453830202A
:1082500053746172740D0A000354362E2047414D49
:1082600045383020526573746172740D0A000075D0
:10827000372E2056544C2053746172740D0A00033B
:1082800075382E2056544C20526573746172740DEB
:108290000A000000D5E5CDBB02E1D1C9AF474FCD03
:1082A000BC26B7C8CDDD02D8F508F1CDEC02D80860
:1082B000E516005F606919444DE1D82318E1B7283D
:1082C0000AFE30D8FE3A3003D630C937C9E5C5CBEF
:1082D00021CB10CB21CB10E109E5C1CB21CB10E1A3
:1082E000C93A52FFB728082A54FF3E31CDB0033AAD
:1082F00056FFB7CA2C012A58FF3E32CDB003C32C1B
:108300000123CDBC26B728D90152FFFE31280E012A
:1083100056FFFE322807FE432833C375010823CDDC
:10832000BC26B7284FFE2CC2750123CDBC26C5CD77
:10833000CC26E1DA7501CD5E03DA7501C32C013E6E
:108340000177231A7723732372B7C937C923CDBCAA
:1083500026B728140152FFFE3128080156FFFE32CD
:10836000C27501AF02C32C01AF0152FF020156FFDB
:1083700002C32C010AB7CA2C01082A54FFFE312877
:10838000032A58FFCDB003C32C0142502800293ADC
:1083900000E5F521A903CDD225F1CD252E21AD0390
:1083A000CDD225E1CDDB25CD1B26C9E52E0026004B
:1083B0002245FF2A32FF2247FFAF3249FFE123CD9A
:1083C000BC26CDCC26D29004CDBC267EB7CAB9043B
:1083D000FE2CCAA104FE50284EFE4DC2750123CDCD
:1083E000BC26213804FE492810213E04FE532809EA
:1083F000B7C275013A44FF18E93244FFE521290468
:10840000CDD225E1CDD225C32C01544D206D6F6412
:10841000653A3C43414C4C2000494E3E0D0A005306
:108420004B49503E0D0A0023CDBC26B720053A43E8
:10843000FF1809FE4FC2750123CDBC26218504FE1D
:108440004E2808218A04FE46C275013243FFE52109
:108450007B04CDD225E1CDD225C32C015450206D13
:108460006F64653A20004F4E0D0A004F46460D0AD4
:1084700000ED5347FFCDBC26B7281FFE2C2803C3B1
:10848000750123CDBC26B7CA7501FE2D2811CDBBC1
:1084900002DA7501ED4345FF181B01010018F523B1
:1084A000CDBC26FE31C2750123CDBC26B7C27501F5
:1084B0003E013249FF2A47FF7E010800216806ED90
:1084C000B120130E01CD3A06DAF9050E02CD1A06D7
:1084D000DAF905C3F605010500217006EDB1201992
:1084E0000E012A47FFCD0D06CD4706DAF9050E022B
:1084F000CD1F06DAF905C3F605010800217506ED62
:10850000B120040E011813010800217D06EDB120F1
:108510001A0E013A44FFFE532808CD2E06DAF9055B
:108520000E02CD2406DAF905C3F605FEC9200B0EAE
:1085300001CD3A06DAF905C3F605010800218506E2
:10854000EDB1200B0E01CD1A06DAF905C3F605FED2
:10855000ED2013237EFE452804FE4D20090E01CD9B
:108560003A06387618712A47FF7EFEE9200C2A2247
:10857000FF0E01CD47063862185DFEDD200B237E1D
:10858000FEE920052A2CFF18E82A47FF7EFEFD2081
:108590000B237EFEE920052A2EFF18D52A47FF7EF1
:1085A000FE18200C0E01CD0D06CD4706382C1827DD
:1085B000FEC320090E01CD2E06381F181AFECDC2AB
:1085C0008D060E013A44FFFE532807CD2E06380AC9
:1085D0001805CD24063803C37014210306CDD22517
:1085E000C32C01FF416472204552520D0A00235EE4
:1085F0002316FFCB7B2002160019C92A47FF180A51
:108600002A47FF18042A47FF232323CD4706C92AF8
:1086100047FF235E2356EBCD4706C9ED5B30FF1ABB
:108620006F131A67CD4706C979FE01200D114AFF65
:1086300012224CFF7E324BFF180B114EFF122250BC
:10864000FF7E324FFFAFC937C9C0C8D0D8E0E8F0CD
:10865000F81020283038C2CAD2DAE2EAF2FAC4CCE2
:10866000D4DCE4ECF4FCC7CFD7DFE7EFF7FF01126F
:1086700000212607EDB1CA0107010800213807EDE6
:10868000B1CA0C072A47FFFECB2857FEDD280AFE99
:10869000ED2828FEFD2802183E237EFECB2859FE39
:1086A000212855FE222851FE2A284DFE3628490150
:1086B0000A00214007EDB128291832237EFE432805
:1086C00037FE4B2833FE53282FFE5B282BFE7328E2
:1086D00027FE7B2823180B0E01CD1A06DAF905C3F5
:1086E000F6050E01CD1F06DAF905C3F6050E01CD1C
:1086F0002406DAF905C3F6050E012A47FF23CD2724
:1087000006DAF905C3F605060E161E262E363EC6F7
:10871000CEDED6E6EEF6FEDBD30111213122322A7F
:108720003A09192939232BE5E1E3F9237EFE49CAE9
:108730005308CDBC26CDCC263806ED5310FF1810BB
:10874000E52A10FF018000092212FFE17EB7282BE5
:10875000CDBC267EFE2C280DB7C2750121800019E4
:108760002212FF181623CDBC26CDCC26DA7501CDFA
:10877000BC26B7C2750113ED5312FFCDA007C32C61
:10878000012A10FF3EF0A56FAF3214FFE5CDCD07F3
:10879000E101100009CD202E200E3A14FFFE023810
:1087A000EB2A12FF2210FFC92210FFC3172ECDDBC8
:1087B00025E521E22BCDD225E1DD2187FF0610CD75
:1087C000070810FB21E52BCDD2252187FF06107E5F
:1087D00023FE203809FE7F3005CD252E18053E2EBC
:1087E000CD252E10EAC31B263E20CD252E3A14FFA0
:1087F000B720203A10FFBD20063A11FFBC280F3EDB
:1088000020CD252ECD252EDD770023DD23C93E0189
:108810003214FF3A14FFFE0120E57EDD7700CDE043
:108820002523DD233A12FFBDC03A13FFBCC03E0230
:108830003214FFC923CDBC26CDCC263014CDBC26A6
:108840007EB7201326002E0A7D327FFF227DFF187F
:1088500033ED5380FF18E6FE2CC2750123CDBC26F4
:10886000FE5320123E01327FFF23CDBB02DA750199
:10887000ED437DFF180ECDCC26DA7501ED537DFF5B
:10888000AF327FFFCD202E2806CD172EC32C01CD71
:108890003209CDF7082187FFCDD2253A7FFFB720D7
:1088A0000E2A7DFFED4B80FFED4230D8C32C012A0C
:1088B0007DFF2B227DFF7CB520CAC32C012280FFC7
:1088C000D5CD3209CDF708D12187FF012A00EDB0BF
:1088D000ED5B80FF3A86FFC92187FFED5B80FFCD0E
:1088E000D210CD6211CD621106043A86FF4F1A13E1
:1088F000D55FCDDA10CD6211D105280F0D20EFCD57
:108900006211CD6211CD62110520F4CD6211ED53DB
:1089100080FFC93E013286FF113112CDF61021A22F
:10892000FFCD22112A80FF7E010D00217511EDB1CE
:108930002012218413CD7810C3F610E6380F0F0FE4
:108940004F0600C9FE0A2819FE1A2823FE02282411
:10895000FE122829FEF9202A110D2ECD4911C31C23
:108960001111CC2DD5CD4611D1CD3011C32211110D
:10897000D32D18F011CC2DCD3811C3111111D32DD9
:1089800018F5FE40DA390AFE803028FE76200611FE
:108990003412C3F610CD5A09CD751021A2FFCD496E
:1089A00011ED5B80FF1AE6074F0600E5CD7510E17B
:1089B000C31F11FE883008CDF310CD461118E2FE1A
:1089C00090300B113D12CDF610CD461118D3FE9804
:1089D0003008114112CDF61018C7FEA0300B11451A
:1089E00012CDF610CD461118B8FEA8300811491264
:1089F000CDF61018ACFEB03008114D12CDF610189F
:108A0000A0FEB83008115112CDF6101894FEC0D255
:108A1000B50A115412CDF6101887010800218211F1
:108A2000EDB1200EF5115712CDF610F1CD5A09C354
:108A3000CA09010800218A11EDB1200AF5115B1263
:108A4000CDF610F118E6010400219211EDB1200FCE
:108A5000115712CDF610217413CD6C10C3221101E1
:108A60000400219611EDB1200F115B12CDF61021FB
:108A70007413CD6C10C32211010400219A11EDB1C1
:108A80002046CDF31011DA2DCD4911E5217413CD17
:108A90007810E1C31F11010400219E11EDB1200FD8
:108AA000115F12CDF610217C13CD6C10C322110181
:108AB000040021A211EDB1200F116312CDF6102197
:108AC0007C13CD6C10C32211FE082817FEE3282169
:108AD000FEEB202511D32DCD4911CD1C11116812AB
:108AE000C3F610111212CD4911111512CD1F111814
:108AF000EC110D2ECD381118E1FEE9200F111D12D9
:108B0000CDF61011DA2DCD2D11C32211010800214F
:108B10006806EDB1200F111912CDF610215C13CDAE
:108B20006C10C32211010800218506EDB120171138
:108B30002D12CDF610792FCB27CB27CB27E6385F28
:108B400021A2FFC38110F53E023286FFF101080029
:108B5000212607EDB12016CD5A09CD7510CD49114A
:108B6000ED5B80FF131A5FCDC410C32211010A0010
:108B7000212E07EDB1C2E00BC5219E13CD7810CD9B
:108B8000F610C179FE012814B7281AFE073803CD64
:108B90004611ED5B80FF131A5FC38110CD4611CDE6
:108BA000D00BC3221121A2FFCDD00BCD6E11C3116A
:108BB00011CD5911ED5B80FF131A5FCDC410C35D59
:108BC00011FE1020051123121807FE18200C112089
:108BD00012CDF61021A2FFC3A510010400217106D9
:108BE000EDB12012112012CDF610216C13CD6C10B6
:108BF000CD6E11C3A510F53E033286FFF1010400CE
:108C0000213807EDB1C2360C21B213CD7810CD4911
:108C100011CD5E0CC38710FE222812FE322814FEEE
:108C20002A2826FE3AC2770CCD46111822CD580CC0
:108C3000C31C11CD580CC31111CD5E0CC38D10E5B2
:108C40002A80FF235E2356E1C911DA2DCD4911CDCB
:108C50005E0CCD9C10C32211FEC32008111D12CD45
:108C6000F61018ADFECD2008112812CDF61018A16F
:108C7000010800217506EDB12011111D12CDF6106D
:108C8000215C13CD6C10CD6E111886010800217D7A
:108C900006EDB1200511281218E32A80FF23F53EC6
:108CA000023286FFF1FECBC27F0D7E21A2FFFE08BD
:108CB000DA080DFE10DA110DFE18DA1A0DFE20DAB0
:108CC000230DFE28DA2C0DFE30DA350DFE38DA5988
:108CD0000DFE40DA3E0DFE80DA470DFEC0DA500D83
:108CE000CD5F0D112713C3F610CD640D11A212C371
:108CF000F610CD640D11A612C3F610CD640D11AAA5
:108D000012C3F610CD640D11AD12C3F610CD640D73
:108D100011B012C3F610CD640D11B412C3F610CD0C
:108D2000640D11B812C3F610CD5F0D11BC12C3F65D
:108D300010CD5F0D11C012C3F610112B13C3F61026
:108D4000F5CD710DF1E6074F0600E5CD7510E1C3D5
:108D50001F11E6380F0F0F473E30B07723C36E1157
:108D6000FEDDC2250F11072EED5382FF11CE13ED4C
:108D70005384FF7EFEE3CAD90DFEE9CAC70DFEF992
:108D8000CAE80D010400214007EDB1CAF10D01044C
:108D900000214407EDB1C2060E21C613CD7810CDD7
:108DA000F61021A2FFC31611ED5B82FFD5111D1233
:108DB000CDF610D1CD2D11C32211116812CDF610B0
:108DC000110D2ECD3811C31611110D2ECD4911C321
:108DD0001611CDF310ED5B82FFCD4911E52A84FF1A
:108DE000CD7810E1C31F11F53E033286FFF1010E6D
:108DF0000021A611EDB1CA450EFE86CA700EFE8E88
:108E0000CA7B0EFE9ECA800E01070021B411EDB18F
:108E1000C2850E21DE13CD7810CDF610ED5B82FFFA
:108E200021A2FFC33C1079FE07D25D0EED5B82FFED
:108E3000CD3310E521EC13CD7810E1C31F11D60717
:108E40004F21EC13CD7810CD4911ED5B82FFC33C6F
:108E500010113912CDF610CD461118EE113D121831
:108E6000F311451218EEF53E043286FFF1FE21CAD9
:108E7000AB0EFE22CAB80EFE2ACAC10EFE36C2D101
:108E80000EED5B82FFCD33105AC38110ED5B82FF84
:108E9000CD4911CD6110C38710CD6110CD8D10C3A8
:108EA0001611ED5B82FFCD4911CD6110CD9C10C331
:108EB0002211FECBC2590DCD61107A01070021BBF2
:108EC00011EDB1C2F10E212414CD7810CDF610C3EE
:108ED0003B0E01180021C211EDB1C2590DFE80DA1E
:108EE000150FFEC0DA1D0F112713CDF61021A2FFBA
:108EF000CD710DC3690E11BC12CDF61018EF11C063
:108F000012CDF61018E7FEEDC222107E01380021C6
:108F1000DA11EDB1C2590D79FE06DA0310FE1BDA43
:108F2000F50FFE1EDAE20FCAC20FFE1FCACB0FFEFC
:108F300020CAD40FFE21CADD0FFE26DAB10FFE2AA9
:108F4000DA9B0FFE31DA800F119F12CDF61079D621
:108F5000314F21EC13CD7810CD4911112F13C31FC0
:108F600011119B12CDF610112F13CD491179D62A6C
:108F70004FE521EC13CD7810E1C31F11114512CD3F
:108F8000F61011DA2DCD491179D6264FE52174134B
:108F900018E3113D12CDF61011DA2DCD491179D615
:108FA0002218E8CD461111152EC31F11CD461111FF
:108FB000132EC31F1111152ECD4911C311111113F9
:108FC0002E18F511C812CDF6103E1D91C63021A203
:108FD000FF7723C32211D6064F060021FA13CD785E
:108FE00010C3F6103E043286FFC57921BA13CD783E
:108FF00010C179FE03DAC50ED5CD6110CD8D10D12B
:10900000C31F11110A2EED5382FF11D613ED5384A5
:10901000FFC3920D21A2FFCD4210C36E11CD4210AD
:10902000C32211CD5911CD5111CD61107BFE803875
:109030000CED445FCD6A11CDC410C35D11CD661136
:1090400018F5E52A80FF23235E2356E1C9CD781069
:1090500021A2FFC35111214C13CB21CB10095E2358
:1090600056C9CDC410C32211CDB310C3221121A201
:10907000FFCD5911CDB310CD5D11C36E11CD591176
:10908000CDB310C35D11E52A80FFCD0D06EBE1CD18
:10909000B310186F7AFEA038043E307723CDD2107B
:1090A0003E48C35F117BFEA038043E307723CDDA03
:1090B0001018ED7ACDE3107ACDE7107BCDE3107B6D
:1090C000CDE710C90F0F0F0FE60FF630FE3A3870DC
:1090D000C607186C113912F5C50608219AFF1AB790
:1090E00028067723130518F63E2077230520FBC1B9
:1090F000F1C911CA2D1809ED5B82FF180311DA2D91
:10910000CD51113E0D77233E0A7723AF77C921A2B7
:10911000FFCD5911CD5111182521A2FFCD5911CDE7
:109120005111CD5D11182811CA2D21A2FFCD511169
:10913000181D1A77B7C8231318F83E2818023E29BD
:109140007723C93E2018F93E2B18F53E2D18F13E25
:109150002CCD5F1118ED00070F171F272F373FC9C0
:10916000D9F3FB040C141C242C343C050D151D25CF
:109170002D353D031323330B1B2B3B09192939C113
:10918000D1E1F1C5D5E5F5464E565E666E7E70714D
:10919000727374757796A6AEB6BE3435060E161E7B
:1091A000262E3E464E565E666E767E868E969EA62F
:1091B000AEB6BEC6CED6DEE6EEF6FE4048505860ED
:1091C000687841495159616979425262724A5A6AD2
:1091D0007A474F575F46565E44454D676FA0A1A240
:1091E000A3A8A9AAABB0B1B2B3B8B9BABB43537381
:1091F0004B5B7B41460041462700524554004A5094
:10920000004A5200444A4E5A0043414C4C005253CB
:1092100054004C440048414C5400414444004144F3
:1092200043005355420053424300414E4400584FBF
:1092300052004F5200435000494E43004445430002
:10924000504F50005055534800455800455858005D
:109250004E4F5000524C4341005252434100524C39
:109260004100525241004441410043504C0053439D
:109270004600434346004449004549004F555400C9
:10928000494E00524C430052524300524C0052523D
:1092900000534C41005352410053524C0042495438
:1092A00000524553004E454700494D00525244007C
:1092B000524C44004C44490043504900494E490037
:1092C0004F555449004C44440043504400494E44D7
:1092D000004F555444004C444952004350495200F9
:1092E000494E4952004F544952004C4444520043A5
:1092F00050445200494E4452004F5444520052458B
:109300005449005245544E00534554003F3F3F00DE
:109310002843290028484C29004E5A005A004E4341
:10932000004300504F0050450050004D00CF2DD15C
:109330002DD62DD82DDD2DDF2D3313CA2D4A134800
:10934000134513421340133D133B13381340133D91
:10935000133B1338130D2EDA2DD32DCC2D1212DA28
:109360002DD32DCC2D981295126B12191291128DAE
:10937000128912851281127D12781273126F129B5C
:10938000129F12541251124D124912411245123DB0
:109390001239120D2EDA2DD32DCC2D0D2ED32DCC2E
:1093A0002D0D2ED32DCC2D5F1263125B1257120D93
:1093B0002E072ED32DCC2D0D2E0A2ED32DCC2D5B8A
:1093C000125712541251124D1249124112CA2DDF76
:1093D0002DDD2DD82DD62DD12DCF2D181313130EF5
:1093E0001309130413FF12FA12F512F012EC12E82B
:1093F00012E412DF12DB12D712D312CF12CB121DDE
:10940000132213C412B812B412B012AD12AA12A6CB
:1094100012A212ED5B32FFED5341FF23CDBC26CDEE
:10942000CC263003B728057AED5341FFCDBC267E0C
:10943000B72818FE2CC2750123CDBC26CDCC26DA68
:109440007501215AFFCD5E03DA75012A41FF2232F0
:10945000FF3A4AFFB7281A2A47FF2232FF214AFF64
:10946000114CFFCDE814214EFF1150FFCDE8141828
:109470001B2152FF1154FFCDE8142156FF1158FF54
:10948000CDE814215AFF115CFFCDE8142A30FFF912
:109490002A32FFE5DD2A2CFFFD2A2EFF2A24FFE5D4
:1094A000ED4B26FFED5B28FF2A2AFFD9F1082A1C85
:1094B000FFE5ED4B1EFFED5B20FF2A22FF3A34FF54
:1094C000ED473A35FFED4FF1C97EB7C81A4F131A71
:1094D000473EFF02C923CDBC26CDCC26DA7501CD8F
:1094E000BC267EB7C2750179B72004ED5B17FFEB90
:1094F000CDDB25E521E92BCDD225E17EE5CDE025AB
:109500003E20CD252ECD3226CDBC267EB72007E1CC
:10951000232217FF18DAFE2D2007E12B2217FF1850
:10952000CFFE2E2007E12217FFC32C01CDCC26B79A
:10953000E1CA750173232217FFED5B54FF1A325302
:10954000FFED5B58FF1A3257FF18A5AF4F3252FF9D
:109550003256FF3236FF23CDBC26FE472006323678
:10956000FF231803CDCC26CDBC26B7C2750179B731
:1095700020031100003E2ECD252ECD172EFE5328A0
:1095800078FE3A280DFE0D28ECFE0A28E8CD172EAD
:1095900018F3CDF7254F47CDF72567814FCDF72538
:1095A0006F814F19CD0916CDF725321AFF814F78FB
:1095B000B72814CDF725F5814F3A1AFFB72005F1EA
:1095C00077231801F110ECCDF7258120143A1AFF0A
:1095D000B7CAAC15CD1B263A36FFB7280A2A37FF83
:1095E000E921C02BCDD225C32C013A36FFFE47C05E
:1095F0002237FF3E013236FFC9CD172E321AFFCD7A
:10960000F725474FCDF72567814FCDF7256F814F60
:1096100019CD09160505052815CDF725F5814F3A11
:109620001AFFFE312005F177231801F110EBCDF779
:109630002581FEFF20123A1AFFFE3728AAFE38289D
:10964000A6FE39288FC3AC1521CD2B1897237EFE9B
:10965000492804FE532004233219FFCDBC26CDCC6B
:1096600026B7281CD5DDE1CDBC267EFE2C2011239B
:10967000CDBC26CDCC26B72807CDBC267EB7280387
:10968000C37501DDE5E1EB23B7ED52CDCA167CB51C
:1096900020F93A19FFFE49200921EC2BCDD225C330
:1096A0002C0121FA2BCDD225C32C010E107CB72022
:1096B000057DB930014F0600B7ED42413A19FFFE72
:1096C0004920303E3ACD252E78CDE025487ACDE0B0
:1096D000257A814F7BCDE0257B814FAFCDE0251AE8
:1096E000F5CDE025F1814F1310F579ED44CDE0255E
:1096F000C31B263E53CD252E3E31CD252E78C603E5
:109700004FCDE0257ACDE0257A814F7BCDE0257BDA
:10971000814F1AF5CDE025F1814F1310F5792FCD4A
:10972000E025C31B2623CDBC26B72006CDCA17C310
:109730002C01EB21B02CBE280D4F237EB728697970
:109740000105000918F0237EFE0F2009234E236631
:1097500069131A18E1B728504E235E2356D5237E8D
:1097600023666FCDD2253E3DCD252E79E607FE013D
:109770002008E17EE5CDE025180CE1E5237ECDE073
:10978000252B7ECDE0253E20CD252EC5CD3226CD04
:10979000BC26CDCC26B7280DC1E179FE012003738C
:1097A0001803732372C32C01C3750121072C5E2398
:1097B00056237AB3CA1B26D5EBCDD225EBD13E2C4E
:1097C000BA20073E72BB200218293E2CBA20053E63
:1097D00099BB281F5E2356237E23EBFE0120077EC4
:1097E000CDE025EB18C8237ECDE0252B7ECDE025EE
:1097F000EB18BB5E2356231AD5E52173FF014618EB
:10980000114E18F5F1CB273006F50A77F11804F55B
:109810001A77F1031323F57EB720E9F12173FFCD09
:10982000D225E1D1231887535A2E482E504E432E6D
:109830002E2E2E2E2E2E2E494E4952B9494E4452CE
:10984000BB4F555449BD4F544952BE4F555444BF68
:109850004F544452C048414C54B352455449AF52FE
:1098600045544EB0444A4E5AAC43414C4CAD435023
:109870004452A84C444952834C4444528550555359
:109880004888524C43418A525243418E4350495278
:10989000A64C4449824C44448445585887504F5004
:1098A00089524C418B524C438C5252418F525243FD
:1098B00090534C41925352419353524C94414444DF
:1098C0009541444396494E439753554298534243DA
:1098D000994445439A414E449B584F529D43504CA6
:1098E0009E4E45479F434346A0534346A142495499
:1098F000A2534554A3524553A4435049A543504451
:10990000A7524554AE525354B14E4F50B2494E49EE
:10991000B8494E44BA4F5554BC444141C1524C44DD
:10992000C2525244C34F5247C4455886524C8D527E
:1099300052914F529C4350A94A50AA4A52AB494DAA
:10994000B6494EB74449B44549B54C44814442C533
:109950004457C600284243299A284445299B284851
:109960004C299C284958299D284959299E285350FB
:1099700029A02843299F41462783414682424385A7
:10998000444588484C8B49588E49598F5350904EC6
:109990005A944E4395504F97504598418142844385
:1099A0008644874589488A4C8C498D52915A924DFC
:1099B000935096002849582BA12849592BA2284991
:1099C000582DA42849592DA50023CD3C25B7281191
:1099D000CDCC26DA7501ED535EFFCD3C25B7C275BF
:1099E000012A5EFF2260FFAF3262FF3264FF326500
:1099F000FF3266FF2A60FFCDDB2521E92BCDD22582
:109A0000217CFFCBCECD3226E5217CFFCB8EE1CD74
:109A10008C257EFE1B280DFE2E2809B7C2D21ACD3A
:109A20004F1A18C3CD4F1A2A60FF225EFFC32C01C4
:109A30003E0AC3252E212B13CD4F1ACDD22521DA74
:109A40002BCDD22518A13A64FFFE442837FE4528C5
:109A500038FE46283F3E200E262187FF77230D2023
:109A6000FB3E0D7723AF77CDD2252A60FF1187FF0C
:109A7000D5CDDC08E1CDD2252A60FFCDCA1A2260FF
:109A8000FFC3061ACD4F1A18EFCDC01ACDCA1A223D
:109A900012FF1808CDC01A23232212FFCDA00718E9
:109AA000D7CD4F1A2A60FF2210FFC93A63FF4FAF8C
:109AB0004709C9CD1524DA541A3A62FFFE01CAAD2E
:109AC00020FE02CA37213A64FF010D0021FD1AED84
:109AD000B1C2541A210A1B09094E2346C5C9010601
:109AE0001516192B373C2A2D222423341B521B70A8
:109AF0001BF11BFE1B1E1C271C671C9C1CA41C1D91
:109B00001D9F1D291EC0C8D0D8E0E8F0F8C6CED6EB
:109B1000DEE6EEF6FE21241B226FFF212C1B2271B4
:109B2000FF183A80889098A0A8B0B8868E969EA616
:109B3000AEB6BE21421B226FFF214A1B2271FF18C5
:109B40001C4048505860687078464E565E666E7687
:109B50007E21601B226FFF21681B2271FF3A65FF87
:109B6000FE19C2541A2A67FF7CB7C2541A7DFE0838
:109B7000D2541A3A66FFFE21282CFE24283AFE22EF
:109B8000283BFE25283FED4B6FFF09563A66FF2123
:109B9000FC1D010800EDB1C2541A79FE0728033EEE
:109BA000069182C3C1233A6EFF5F16DDED4B71FF54
:109BB000094B5E3ECBC3E4233A6DFF18EC3A6CFFD1
:109BC0005F16FD18E73A6BFF18F6ECE4F4D4C4FC1A
:109BD000CCDC11E91B180BEAE2F2D2C2FACADA11A4
:109BE000F61B2132220108003A65FFEDB1C2541A7A
:109BF0003A66FFFE19C2541A626B097EC3B5211181
:109C0000D341ED4B65FF180B11DB403A65FF473A36
:109C100066FF4F79FE23281FFE1FC2541A78FE01EB
:109C2000280F21E61D010600CD8B1CDA541A7A1884
:109C3000037AC638C30F242A69FF7CB7C2541A7D41
:109C4000F57B18251412150621631C01040016204B
:109C50003A65FFCD8B1CDA541A3A66FFFE19C254DE
:109C60001ACD5E25DA541AF57AC3D721EDA1280C56
:109C70005F7AC6085779B07B20F237C9C9119F4275
:109C80003EDE081806118F4A3ECE083A65FFFE01F7
:109C9000282AFE0BC2541A3A66FFFE052819FE0850
:109CA0002811FE0B2809FE10C2541A3E3018093E36
:109CB0002018053E101801AF82C30F243A66FF2119
:109CC000FC1D010900EDB1201879FE082810B72805
:109CD000057B91C3C0202A67FF0857C3B91E7B18B4
:109CE000F221051E010400EDB1C2541A216BFF09D7
:109CF00056790EFDFE0238020EDD1DC3FC1E1187D3
:109D0000093EC6083A66FF473A65FFFE0128ADFEE8
:109D10000B2847FE0E2809FE0FC2541A0EFD18022A
:109D20000EDD78FE052819FE082819FE0E2819FEFA
:109D30000FCA711DFE10C2541A3E39F579C3D721DE
:109D40003E0918F73E1918F379FEDDC2541A3E2970
:109D500018E979FEFDC2541A18F478FE052812FE9F
:109D6000082813FE0B2814FE10C2541A3E39C3F201
:109D70001C3E09C3F21C3E19C3F21C3E29C3F21C4F
:109D80003A66FF473A65FFFE022826FE08282CFEA9
:109D900020C2541A781EE3FE0B2813FE0E16DD288F
:109DA00007FE0FC2541A16FD7BF57AC3D7217B1824
:109DB0001278FE03C2541A3E08180878FE0BC254EB
:109DC0001A3EEBC3C02001040607090A0C05080B64
:109DD0000E0F212422250D10111A1B1C230104062D
:109DE00007090A0C1C19212422251A1B0D112368AE
:109DF000605850484078711E821E871E8B1E901E30
:109E0000951EA31EA81EB01EB51E3A65FF21E51DB6
:109E1000010700EDB1C2C71E210E1E09563A66FFAA
:109E200021FC1D010800EDB1200C79FE0728033E3E
:109E30000691B2C3C02021041E010A00EDB1C25434
:109E40001A79FE0530067AFE78C2541A21151EC30F
:109E5000F61A3E3A2A60FF7723ED5B69FF7323729F
:109E6000C3C1213E5FC30F243E5718F93E1AC3C039
:109E7000203E0AC3C0203A6BFF4F1EFD3E06B2577C
:109E80007BC3CC223A6CFF18F03A6DFF4F1EDD18F1
:109E9000EB3A6EFF18F67AD63A572A67FF7CB7C2BC
:109EA000541A7DF57AC3D721010500EDB1207479EC
:109EB000B7286CFE01284EFE022835FE032829161D
:109EC000ED1E4B0E013A66FFFE19280A7B2169FF41
:109ED0004E235EC3E4232167FF5E2356792A60FF89
:109EE0007123732372C3C12116ED1E5B0E1118D5A9
:109EF0000E21ED5B67FF3A66FFFE1928E00E2AEDA2
:109F00005B69FF18D816DD0E212167FF3A66FFFE58
:109F10001928050E2A2169FF794E235EC3E4231612
:109F2000FD18E4010400EDB1203F216BFF095679D3
:109F30001EFDFE0238021EDD3A66FFFE19281A21B8
:109F4000E51D010700EDB1C2541A79FE063E7728DF
:109F5000033E75914B5FC3FC1E2A67FF7CB7C2545A
:109F60001A3E364A535DC3E423010700EDB1C254E3
:109F70001A21961FC3F61AB21FE71F542058205DFE
:109F80002016206220010B0508100E0F22227353A9
:109F90004322323A66FF21A41F010700EDB1C254EB
:109FA0001A21AB1F09794E2A69FFFE0538055D5459
:109FB000C3FC1EFE02380816ED794D5CC3E423167F
:109FC000FDB728F516DD18F13A66FFFE192819FECF
:109FD00001281121E61D010600EDB1C2541A3E759B
:109FE00091C3C0203E7718F92A67FF7CB7C2541A84
:109FF0007DF53E36C3D7213A66FFFE0B281DFE0EC7
:10A00000281DFE0F281DFE192822FE23C2541A16F1
:10A01000ED3E7B2A69FF4D5CC3E4233EF9181C1614
:10A02000DD180216FD3EF9F57AC3D7210E31ED5B3E
:10A0300067FFC3FC1E3E1218023E02C3C0203E4F03
:10A04000C30F243E47C30F24070A0B0E0F1E202107
:10A050002E323334354127FBF37600C9373F2F1FAB
:10A060000F1707D9272825263A3B3839040502035C
:10A070001F403E3F3D2F304243676F454DA3ABB37A
:10A08000BB44B0A0B8A8B2A2BAAAB1A1B9A93A6417
:10A09000FF010E00216720EDB1C2CC2021752009FF
:10A0A0007E2A60FF773E013263FFC3651A01150007
:10A0B000218320EDB1C2541A2A60FF3EED7723EBD5
:10A0C000219820097E123E0218DD0809171A181B74
:10A0D0001C1D292A2E312B2C2D0C100D111213149E
:10A0E000364445464B2160219921F3238D23922349
:10A0F00097239C23A123A623AB23AB21C621E121D7
:10A10000F4211E2242227C228022842288228C2258
:10A110000E231323552359233A64FF011A0021E922
:10A1200020EDB1C2541A210321C3F61A3A65FFFE8D
:10A1300019C2541A2A60FFED4B67FF712370C3E503
:10A14000203A65FFFE192820FE26C2541A2A67FF0E
:10A15000AF4FED5B60FF7EFE222809B72806122371
:10A16000130C18F279C3C620ED4B67FF78B7C254C1
:10A170001A2A60FF713E01C3C6203A65FFFE19C26C
:10A18000541A2A67FF2260FFAFC3C6203A65FFFE5C
:10A1900019C2541A3ECD2A60FF7723ED5B67FF7327
:10A1A00023723E03C3C6203A65FFFE19C2541ACD7E
:10A1B0005E25DA541AF53E102A60FF7723F177C343
:10A1C000E5203A65FFFE19C2541ACD5E25DA541A0D
:10A1D000F53E1818E32A67FF7CB7C2541A7D210E9A
:10A1E00022010800EDB1C2541A211622C3BE20007C
:10A1F00008101820283038FFF7EFE7DFD7CFC73A2D
:10A2000065FF213222010800EDB1C2541A213A2221
:10A21000C3BE200612131415161718E8E0F0D0C0BC
:10A22000F8C8D83A65FFFE1928212EE9FE1C281728
:10A23000FE1D280CFE1EC2541A7DF53EFDC3D7211B
:10A240007DF53EDDC3D7217DC3C0203EC3C3B5210C
:10A250000606060646060504030201000716B8189E
:10A260000E16A8180A16B0180616A0180216903A6C
:10A2700065FF21FC1D010D00EDB1C2541A216F22B2
:10A28000097EB25779FE05DAAD227AC3C020FE04FA
:10A29000380E2A67FF7CB7C2541A7DF57AC3D721DE
:10A2A000FE023EFD38023EDD216BFF094E2A60FFB3
:10A2B000777A23772371C3C12101040506070809B2
:10A2C0000A0B0C101C0E0F21242225353535352B99
:10A2D0002B353B2D2B251D1B150D0B053D34343423
:10A2E00034232334332C23241C13140C03043C1177
:10A2F000EA22180311FC223A65FF21D8220112003C
:10A30000EDB1626BC2541A7916FDFE06D2BE200969
:10A310007E5F79FE043808280216DD7BC3BA22FE70
:10A3200002380216DD7A53C3C7220205080B0E0F4E
:10A33000E0E0E0D0C0F01601180216052149230123
:10A3400006003A65FFEDB1C2541A214F23097EB2CF
:10A350005779FE027AD2C0201EFD79B728021EDD91
:10A360007AF57BC3D7210605040302010007113EDD
:10A3700038181C112E2818171126201812111E1813
:10A38000180D1116101808110E0818031106003ABE
:10A3900065FF21FC1D010800EDB1200C218523097A
:10A3A0007EB2F53ECBC3D72121051E010400EDB1DD
:10A3B000C2541A16FD79FE02380216DD216BFF0920
:10A3C0004E23463ECB2A60FF722377237123733ED0
:10A3D00004C3C6203A68FFB7C2541A3A67FFFE03A7
:10A3E000D2541A0E46B728070E563D28020E5E7943
:10A3F000F53EEDC3D721CDD824D83264FFCD4F240C
:10A400007EB7C8FE20C24D24CD5724D83265FF0840
:10A41000CD4F2408FE26C87EB7C8FE2C2010CD578D
:10A4200024D83266FFCD4F247EB72002C9F137C948
:10A430003A62FF3C3262FFC923CDCE24D0CDD32473
:10A440003840F5CD0125DA4C247AB720E07EFE298C
:10A4500020DB23F1F5FE212005016EFF1807FE2207
:10A46000200B016CFF7BFE8030C302F1C9FE24206B
:10A470000C016DFF7BFE8130B4ED4418ED016BFFE4
:10A4800018F27EFE28201223CD0125D87EFE292039
:10A490009D23ED5369FF3E23C9FE22200723226737
:10A4A000FF3E26C9CD0125D8ED5367FF3E19C911DE
:10A4B0007319180B11D31918062187FF115618E5C7
:10A4C0001ABE2004231318F8E680200E131AE68023
:10A4D00028FA131AB72808E118E51AE67FD1C9E16E
:10A4E00037C911AAFF0E00CD4325D81213230CCD76
:10A4F0004D25380B1213230C79FE07282F18F0086E
:10A50000AF1208FE48280BE521AAFFCDB302E150A7
:10A5100059C923E521AAFFCDCC26E1B7C97EFE208B
:10A52000C02318F97EFE3A3003FE30D037C97EFED4
:10A5300030D8FE3A3807FE41D8FE4730EFB7C9E5BC
:10A54000D5ED5B60FF13132A67FFAFED52380D7C2A
:10A55000B720177DFE803012B7D1E1C97CFEFF2005
:10A56000097DED44FE817D3F18EF3718ECE5D5C538
:10A570002187FF545D0E20CD3C25CDB125B7280E97
:10A580000E0023CD3C25B72803CDB1251B12C1D128
:10A59000E1C906001213B7C8B9C8FE222006087820
:10A5A000EE014708237EB928EBCB4020E7FE2028A8
:10A5B000E918E17EA7C8CD252E2318F77CCDE0252C
:10A5C0007DF51F1F1F1FCDE925F1E60FC630FE3AAE
:10A5D000DA252EC607C3252EAFCDFF2507070707AF
:10A5E000C54FCD172EFE303811FE3A380AFE4138DD
:10A5F00009FE473005D607D630B1C1C93E0DCD257D
:10A600002E3E0AC3252EE5212E26CDD225E1C91BDB
:10A610005B32002187FF0628D5E5581D0600CD17BF
:10A620002EFE0D285AFE0A2856FE08283BFE7F28DB
:10A6300037FE22200AF53A7CFFEE04327CFFF1FE61
:10A640002038DBFE8030D74F78BB30D20479CD255F
:10A650002EFE61380FFE7B300BE5217CFFCB5620B0
:10A6600002E6DFE1772318B678A728B2052B3E086B
:10A67000CD252E3E20CD252E3E08CD252E189FE53A
:10A68000217CFFCB4620053E0DCD252ECB4E20054F
:10A690003E0ACD252ECB96E13600E1D1C97EFE20C3
:10A6A000C02318F9FE61D8FE7BD0C6E0C90E0011A8
:10A6B00000007EFE30382CFE3A380AFE413824FE77
:10A6C000473020D607D6301717171717CB13CB12E2
:10A6D00017CB13CB1217CB13CB1217CB13CB1223E1
:10A6E0000C18CF79B72806FE053002B7C937C9E57F
:10A6F000C5212B2706000909015727B7E5ED42E1DF
:10A70000300746236668C1E3C9C1E1C97E00572707
:10A71000252ED225172E202E9927DB25E025E92589
:10A7200025263726BC261B26C326CC26D02806295C
:10A730007C292727DC08B3023100FF3A5AFFB728EB
:10A7400006215BFFCD88283A4AFFB72806214BFF38
:10A75000CD88283A4EFFB72806214FFFCD88283AEA
:10A7600056FFB728062157FFCD94283A52FFB72845
:10A77000062153FFCD9428C35E28AFC9F5ED5F32A3
:10A7800035FFED573234FF2222FFED5320FFED431A
:10A790001EFFE1221CFF08F5D9222AFFED5328FFF6
:10A7A000ED4326FFE12224FFDD222CFFFD222EFFB8
:10A7B000E12B2232FFED7330FF3100FFAF575F3ADC
:10A7C0005AFFB7280911BE28215BFFCD88283A56C9
:10A7D000FFB7280911BE282157FFCD94283A52FF10
:10A7E000B7280911BE282153FFCD94283A4AFFB754
:10A7F000280911C728214BFFCD88283A4EFFB728DA
:10A800000911C728214FFFCD88287AB3200311B43E
:10A81000281AFE54280CEBCDD225CDCA17CD9B2883
:10A82000181D3A43FFFE46280AEBCDD225CDCA17A4
:10A83000CD9B28CD202E2813CD172EFE03200CAF44
:10A840003249FF676F2245FFC32C013A49FFB7C267
:10A850007F282A45FF2B2245FF7DB42003C32C010E
:10A860002A32FF2247FFC3D404E57E234E2346024B
:10A87000E1AF2B77C97E234E234602C92A32FF223D
:10A8800080FFCD3209CDF7082187FFCDD2252A32AE
:10A89000FF2280FFC9525354203338480D0A00422A
:10A8A0007265616B210D0A005472616365210D0AA6
:10A8B00000F5C5D5E5DDE5E5DDE1EBE521050019B0
:10A8C000AF77EBE10101003E0ACD0629F6301B12FD
:10A8D0000C7CB520F279FE062806DDE5E1EBEDB053
:10A8E000DDE1E1D1C1F1C9C5D54F060FAF291791FF
:10A8F000380D292C1791380C292C10F8C327292939
:10A90000178138F42910F981D1C1C92239FFED53DB
:10A910003BFFAF323DFF323EFF323FFF3240FF068A
:10A9200010213DFFCB2623CB162139FFCB2623CB8D
:10A9300016213FFFCB1623CB162A3BFF5D542A3F3F
:10A94000FFAFED523002180B223FFF3A3DFFF601F8
:10A95000323DFF10CC2A3DFFED5B3FFFC9F5C5B787
:10A960001804CB21CB101F30F90920F6C1F1C93FE3
:10A97000203A436F6D6D616E642048656C700D0AFE
:10A98000234C7C3C6E756D3E203A4C61756E63685D
:10A990002070726F6772616D0D0A415B3C61646487
:10A9A000726573733E5D203A204D696E6920417374
:10A9B00073656D626C65206D6F64650D0A425B3175
:10A9C0007C325B2C3C6164723E5D5D203A53657461
:10A9D000206F72204C69737420427265616B205045
:10A9E0006F696E740D0A42435B317C325D203A43DD
:10A9F0006C65617220427265616B20506F696E7484
:10AA00000D0A445B3C6164723E5D203A44756D7092
:10AA1000204D656D6F72790D0A44495B3C6164722B
:10AA20003E5D5B2C733C73746570733E7C3C61646B
:10AA3000723E5D203A446973617373656D626C6543
:10AA40000D0A475B3C6164723E5D5B2C3C73746F26
:10AA500070206164723E5D203A476F20616E642011
:10AA600053746F700D0A4C5B477C3C6F6666736570
:10AA7000743E5D203A4C6F61642048657846696C8D
:10AA8000652028616E6420474F290D0A505B497C80
:10AA9000535D203A536176652048657846696C6558
:10AAA00028493A496E74656C2C533A4D6F746F7235
:10AAB0006F6C61290D0A525B3C7265673E5D203AFE
:10AAC000536574206F722044756D702072656769DC
:10AAD000737465720D0A535B3C6164723E5D203A8B
:10AAE000536574204D656D6F72790D0A545B3C613E
:10AAF00064723E5D5B2C3C73746570733E7C2D31DB
:10AB00005D203A20547261636520636F6D6D616EE4
:10AB1000640D0A544D5B497C535D203A5472616365
:10AB200065204F7074696F6E20666F722043414CD0
:10AB30004C0D0A54505B4F4E7C4F46465D203A54B4
:10AB400072616365205072696E74204D6F64650D8B
:10AB50000A000D0A454D555A3830204D4F4E495484
:10AB60004F52205265762E42303520666F72205348
:10AB7000757065724D455A38300D0A5468697320F6
:10AB80006D6F6E69746F72206973206261736564A2
:10AB9000206F6E20756E696D6F6E2E0D0A005D2040
:10ABA000004572726F7220696865780D0A004572FF
:10ABB000726F7220737265630D0A004572726F7254
:10ABC0000D0A00203A00207C20002020003A30307E
:10ABD00030303030303146460D0A00533930333092
:10ABE00030303046430D0A005C2C1DFF01602C1EE6
:10ABF000FF02662C20FF026C2C22FF02722C1CFF2D
:10AC000001772C2CFF027C2C2EFF02812C25FF01CA
:10AC1000872C26FF028D2C28FF02932C2AFF0299F5
:10AC20002C24FF019E2C30FF02A32C32FF02A82C03
:10AC300034FF01AC2C35FF01000000000041203D35
:10AC400000204243203D00204445203D0020484C48
:10AC5000203D002046203D002049583D0020495914
:10AC60003D000D0A41273D00204243273D0020447E
:10AC700045273D0020484C273D002046273D002029
:10AC800053503D002050433D0020493D0020523D9F
:10AC900000410FFA2C0000420F082D0000430F2A3C
:10ACA0002D0000440F382D0000450F5A2D0000469E
:10ACB0000F682D0000480F762D0000490FA62D00CB
:10ACC000004C0F982D0000500FBA2D000052013596
:10ACD000FF152E530FC22D0000000000011DFFCAFA
:10ACE0002D270125FFE32D000000011FFFCF2D2799
:10ACF0000127FFEA2D430F1C2D0000000000021E5B
:10AD0000FFCC2D270226FFE62D000000011EFFD1FB
:10AD10002D270126FFED2D0000000121FFD62D2754
:10AD20000129FFF42D450F4C2D00000000000220EA
:10AD3000FFD32D270228FFF02D0000000120FFD8AF
:10AD40002D270128FFF72D000000011CFFE12D2712
:10AD50000124FF042E0000000123FFDD2D27012B1D
:10AD6000FFFE2D4C0F8A2D00000000000222FFDAAA
:10AD70002D27022AFFFA2D0000000122FFDF2D27D8
:10AD8000012AFF012E0000000134FF132E58022C6F
:10AD9000FF072E59022EFF0A2E0000430232FF1039
:10ADA0002E0000500230FF0D2E00004100424300F3
:10ADB0004200430044450044004500484C00480020
:10ADC0004C0046004127004243270042270043270A
:10ADD0000044452700442700452700484C270048E9
:10ADE00027004C2700462700495800495900535076
:10ADF0000050430049005200DB01CB4728FADB003A
:10AE0000C9DB01CB47C9F5DB01CB4F28FAF1D300F1
:10AE1000C9FFFFFFFFFFFFFFFFFFFFFFFFFFFFFF78
:10AE2000FFFFFFFFFFFFFFFFFFFFFFFFFFFFFFFF32
:10AE3000FFFFFFFFFFFFFFFFFFFFFFFFFFFFFFFF22
:10AE4000FFFFFFFFFFFFFFFFFFFFFFFFFFFFFFFF12
:10AE5000FFFFFFFFFFFFFFFFFFFFFFFFFFFFFFFF02
:10AE6000FFFFFFFFFFFFFFFFFFFFFFFFFFFFFFFFF2
:10AE7000FFFFFFFFFFFFFFFFFFFFFFFFFFFFFFFFE2
:10AE8000FFFFFFFFFFFFFFFFFFFFFFFFFFFFFFFFD2
:10AE9000FFFFFFFFFFFFFFFFFFFFFFFFFFFFFFFFC2
:10AEA000FFFFFFFFFFFFFFFFFFFFFFFFFFFFFFFFB2
:10AEB000FFFFFFFFFFFFFFFFFFFFFFFFFFFFFFFFA2
:10AEC000FFFFFFFFFFFFFFFFFFFFFFFFFFFFFFFF92
:10AED000FFFFFFFFFFFFFFFFFFFFFFFFFFFFFFFF82
:10AEE000FFC3062FC36B2FC30D2FAC37223F214565
:10AEF00080F9C3374B11D53106632145801A77237A
:10AF00001305C21C2FF9CDD633CDA23932EF8032D2
:10AF10003E8121C0FE11A181CD6C35DA742F11CE96
:10AF2000FF22F48019229F80CDB1332A9F8011EF38
:10AF3000FF19113E817D936F7C9A67E5218C2FCD9F
:10AF40004040E1CDE346217D2FCD404031AB80CD67
:10AF5000D633C3EF3221C32FCD4040C37A2F2042D6
:10AF60007974657320667265650D0A00005A383081
:10AF70002042415349432056657220342E37620DDA
:10AF80000A436F70797269676874202843292031F9
:10AF9000393738206279204D6963726F736F667438
:10AFA0000D0A00004D656D6F72792073697A652016
:10AFB0006E6F7420656E6F7567680D0A5468652042
:10AFC00073797374656D2069732073746F70706525
:10AFD000642E0D0A000058451C466E454880003F0F
:10AFE00085422E3FE247C148FD43304836493C493F
:10AFF0009D49B249D9421C4A9680B241CA3F4C424F
:10B00000C141D2413E4AD14AE24112421C42C54EA0
:10B0100044C64F52CE455854C4415441C94E505570
:10B0200054C4494DD2454144CC4554C74F544FD2E6
:10B03000554EC946D24553544F5245C74F535542BA
:10B04000D2455455524ED2454DD3544F50CF5554FE
:10B05000CF4ECE554C4CD7414954C44546D04F4BAA
:10B0600045C44F4B45D3435245454ECC494E4553BD
:10B07000C34C53D749445448CD4F4E49544F52D3F3
:10B080004554D245534554D052494E54C34F4E5463
:10B09000CC495354C34C454152C34C4F4144C35314
:10B0A000415645CE4557D4414228D44FC64ED35081
:10B0B0004328D448454ECE4F54D3544550ABADAA47
:10B0C000AFDEC14E44CF52BEBDBCD3474EC94E5475
:10B0D000C14253D55352C65245C94E50D04F53D397
:10B0E0005152D24E44CC4F47C55850C34F53D34909
:10B0F0004ED4414EC1544ED045454BC445454BD02E
:10B100004F494E54CC454ED3545224D6414CC15392
:10B1100043C3485224C8455824C2494E24CC45460E
:10B120005424D24947485424CD49442480443741CB
:10B13000361C3B9138233A583D523AA8384E3831A4
:10B140003820390A373D386C3893384237914202FB
:10B150003983379742363FE042274A93380D4A01F8
:10B160004A054A334B99809C8044397037B635EB99
:10B170003793389338B03379CA4679FE427C3C44E1
:10B180007C9D447FEB4750B13C46B03C4E46534E0D
:10B1900052474F4446434F564F4D554C42534444FB
:10B1A0002F304944544D4F534C535354434E5546FE
:10B1B0004D4F4858424EC36B2FC3C137D300C9D639
:10B1C000006F7CDE006778DE00473E00C9000000AB
:10B1D000354ACA99391C76982295B3980ADD479862
:10B1E00053D199990A1A9F9865BCCD98D6773E9805
:10B1F00052C74F80DB00C901FF1C0000140014007F
:10B2000000000000C3E934C30000C30000C3000015
:10B21000A281FEFF3F81204572726F720020696E2D
:10B2200020004F6B0D0A0000427265616B00210423
:10B2300000397E23FE81C04E234623E569607AB340
:10B24000EBCA6732EBCD6C35010D00E1C809C35183
:10B2500032CD8A32C5E3C1CD6C357E02C80B2BC31B
:10B260007632E52A1F81060009093EE53ED0956F3A
:10B270003EFF9CDA99326739E1D81E0CC3B8322AF6
:10B280000E8122A1801E02011E14011E00011E1249
:10B29000011E22011E0A011E18CDD633328A80CD2E
:10B2A000953921AB31573E3FCD7D35197ECD7D356A
:10B2B000CDFA36CD7D35213532CD40402AA18011E1
:10B2C000FEFFCD6C35CA0D2F7CA53CC4DB463EC1CC
:10B2D000AF328A80CD9539214132CD404021FFFFE8
:10B2E00022A180CDE934DAFC32CDFA363C3DCAFCED
:10B2F00032F5CDC637D5CD003447D1F1D2DA36D5C7
:10B30000C5AF321181CDFA36B7F5CD9033DA35338A
:10B31000F1F5CA6738B7C5D24C33EB2A1B811A0244
:10B320000313CD6C35C23D336069221B81D1F1CA54
:10B3300073332A1B81E3C109E5CD7032E1221B8101
:10B34000EB74D123237323722311A6801A7723135E
:10B35000B7C26B33CDBC3323EB626B7E23B6CAFC22
:10B3600032232323AFBE23C28433EB732372C3780B
:10B37000332AA380444D7E23B62BC823237E236625
:10B380006FCD6C3560697E23666F3FC83FD0C39335
:10B3900033C02AA380AF77237723221B812AA3807F
:10B3A0002B2213812AF480220881AFCD0A372A1B71
:10B3B00081221D81221F81C12A9F80F921F88022CC
:10B3C000F680AF6F67221981321081222381E5C593
:10B3D0002A1381C93E3FCD7D353E20CD7D35C393B7
:10B3E00080AF32F3800E0511A6807EFE20CA88341D
:10B3F00047FE22CAA834B7CAAF343AF380B77EC238
:10B400008834FE3F3E9ECA88347EFE30DA3334FEF6
:10B410003CDA8834D5112C30C5018434C5067F7ED2
:10B42000FE61DA4C34FE7BD24C34E65F774EEB2380
:10B43000B6F24E34047EE67FC8B9C24E34EBE51353
:10B440001AB7FA80344F78FE88C26F34CDFA362BA3
:10B45000237EFE61DA7834E65FB9CA5E34E1C34C1C
:10B460003448F1EBC9EB79C1D12312130CD63ACA97
:10B470009634FE49C2993432F380D654C209344717
:10B480007EB7CAAF34B8CA883423120C13C39F34B2
:10B4900021A5801213121312C93A8980B73E0032D7
:10B4A0008980C2CC3405CAE934CD7D353E052BCA2E
:10B4B000E0347ECD7D35C3F234052BCD7D35C2F22F
:10B4C00034CD7D35CDA239C3E93421A6800601AF44
:10B4D000328980CDA5354FFE7FCAB8343A8980B70E
:10B4E000CA0B353E00CD7D35AF32898079FE07CA63
:10B4F0004F35FE03CCA23937C8FE0DCA9D39FE1563
:10B50000CAE334FE40CAE034FE5FCAD834FE08CA3B
:10B51000D834FE12C24A35C5D5E53600CD464B219A
:10B52000A680CD4040E1D1C1C3F234FE20DAF2342E
:10B5300078FE493E07D2643579713211812304CDFA
:10B540007D35C3F234CD7D353E08C35E357C92C077
:10B550007D93C97EE3BE23E3CAFA36C3A432F53A2B
:10B560008A80B7C27540F1C5F5FE20DAA1353A8769
:10B5700080473AF08004CA9D3505B8CCA2393C32E8
:10B58000F080F1C1CFC9CDFF49E67FFE0FC03A8AF6
:10B59000802F328A80AFC9CDC637C0C1CD9033C5A8
:10B5A000CD0C36E14E23462378B1CAEF32CD1536A5
:10B5B000CD2537C5CDA2395E235623E5EBCDE34635
:10B5C0003E20E1CD7D357EB723CAC235F2E235D6C5
:10B5D0007F4F112D301A13B7F2F4350DC2F435E652
:10B5E0007FCD7D351A13B7F2FE35C3E535E52A8DDB
:10B5F00080228B80E1C9E5D52A8B8011FFFFED5AAF
:10B60000228B80D1E1F0E52A8D80228B80CDFF490D
:10B61000FE03CA3836E1C315362A8D80228B80C3DB
:10B620006E2F3E64321081CDA838C1E5CD9138220D
:10B630000C8121020039CD5132D1C2713609D52B8E
:10B64000562B5E2323E52A0C81CD6C35E1C255369D
:10B65000D1F9EB0E08CD8132E52A0C81E3E52AA170
:10B6600080E3CD6A3BCD7235A6CD673BE5CD9545F0
:10B67000E1C5D5010081515A7EFEAB3E01C2AD3617
:10B68000CDFA36CD673BE5CD9545CD4945E1C5D5EC
:10B69000F533E52A1381E30681C533CD253722131F
:10B6A000817EFE3ACADA36B7C2A432237E23B6CAF6
:10B6B0004C37235E2356EB22A180EBCDFA3611BA2C
:10B6C00036D5C8D680DAA838FE25D2A432074F0670
:10B6D00000EB214C31094E2346C5EB237EFE3AD0C8
:10B6E000FE20CAFA36FE303F3C3DC9EB2AA380CA91
:10B6F0001F37EBCDC637E5CD90336069D1D26738BF
:10B700002B222181EBC9DFC8D7FE1B2811FE03289D
:10B710000DFE13C0D7FE11C8FE03280718F63EFF22
:10B72000329280C0F6C022138121F6FFC12AA18087
:10B73000F57DA43CCA5F372217812A138122198123
:10B74000AF328A80CD9539F1214732C2D832C3EF6A
:10B75000322A19817CB51E20CAB832EB2A17812201
:10B76000A180EBC9CDC842C0328680C9E52A8F804E
:10B7700006004F09228F80E1C97EFE41D8FE5B3F63
:10B78000C9CDFA36CD673BCD4945FAC1373A2C8150
:10B79000FE90DAF145018090110000E5CDC445E14D
:10B7A00051C81E08C3B8322B110000CDFA36D0E5BF
:10B7B000F5219819CD6C35DAA432626B1929192953
:10B7C000F1D6305F160019EBE1C3CA37CAC033CDDA
:10B7D000A3372BCDFA36E52AF480CA0E38E1CD72B4
:10B7E000352CD5CDA3372BCDFA36C2A432E3EB7D71
:10B7F000935F7C9A57DA9932E52A1B810128000968
:10B80000CD6C35D29932EB229F80E122F480E1C3E6
:10B81000C033CABC33CDC03301BA36C34D380E0372
:10B82000CD8132C1E5E52AA180E33E8CF533C5CD5B
:10B83000C637CD9338E52AA180CD6C35E123DC9362
:10B8400033D4903360692BD81E0EC3B832C016FFB4
:10B85000CD4D32F9FE8C1E04C2B832E122A1802304
:10B860007CB5C28B383A1181B7C2EE3221BA36E3C9
:10B870003EE1013A0E0006007948477EB7C8B8C8D5
:10B8800023FE22CA9738C39A38CD5D3DCD7235B4B8
:10B89000D53AF280F5CD793BF1E32213811FCD6CCF
:10B8A0003BCAFB38E52A2981E523235E23562AA3D8
:10B8B00080CD6C35D2EA382A9F80CD6C35D1D2F25A
:10B8C00038210481CD6C35D2F2383ED1CDA141EB87
:10B8D000CDDA3FCDA141E1CDA445E1C9E5CDA145FA
:10B8E000D1E1C9CDC8427E47FE8CCA1139CD72352F
:10B8F000882B4B0D78CAE236CDC737FE2CC0C31259
:10B9000039CD793B7EFE88CA2E39CD7235A92BCD33
:10B910006A3BCD4945CA9338CDFA36DA4E38C3E191
:10B92000362BCDFA36CAA239C8FEA5CAD539FEA82B
:10B93000CAD539E5FE2CCABE39FE3BCAF839C1CD9D
:10B94000793BE53AF280B7C28E39CDEE46CDFE3F67
:10B9500036202A2981342A29813A87804704CA8AD5
:10B9600039043AF080863DB8D4A239CD4340AFC403
:10B970004340E1C340393AF080B7C8C3A23936002A
:10B9800021A5803E0DCD7D353E0ACD7D35AF32F00F
:10B99000803A86803DC8F5AFCD7D35F1C3B3393AE5
:10B9A0008880473AF080B8D4A239D2F839D60ED27E
:10B9B000CC392FC3ED39F5CDC542CD7235292BF1E8
:10B9C000D6A8E5CAE8393AF0802F83D2F8393C4747
:10B9D0003E20CD7D3505C2F139E1CDFA36C3473978
:10B9E0003F5265646F2066726F6D2073746172746C
:10B9F0000D0A003A1281B7C29E32C121FF39CD40F3
:10BA000040C3EF33CDAB3F7EFE223E00328A80C280
:10BA10003D3ACDFF3FCD72353BE5CD43403EE5CDD0
:10BA2000F333C1DA4937237EB72BC5CA9038362C99
:10BA3000C3573AE52A2181F6AF321281E3C3633A54
:10BA4000CD72352CCD5D3DE3D57EFE2CCA8B3A3AC6
:10BA50001281B7C2F83A3E3FCD7D35CDF333D1C127
:10BA6000DA4937237EB72BC5CA9038D53AF280B76A
:10BA7000CAB53ACDFA365747FE22CAA93A3A1281D8
:10BA8000B757CAA63A163A062C2BCD0240EB21C076
:10BA90003AE3D5C3C338CDFA36CD5046E3CDA14500
:10BAA000E12BCDFA36CACC3AFE2CC2123AE32BCDAA
:10BAB000FA36C25F3AD13A1281B7EBC22037D5B617
:10BAC00021E73AC44040E1C93F457874726120697A
:10BAD000676E6F7265640D0A00CD9138B7C2113B75
:10BAE000237E23B61E06CAB832235E2356EB220EEF
:10BAF00081EBCDFA36FE83C2F83AC38B3A110000CF
:10BB0000C45D3D221381CD4D32C2AA32F9D57E23C8
:10BB1000F5D5CD8745E3E5CDF442E1CDA145E1CDB5
:10BB20009845E5CDC445E1C190CD9845CA573BEB5A
:10BB300022A1806960C3B636F92A13817EFE2CC229
:10BB4000BA36CDFA36CD1F3BCD793BF6373AF28087
:10BB50008FB7E8C3B632CD7235282B1600D50E014B
:10BB6000CD8132CDF03B2215812A1581C178FE7836
:10BB7000D46A3B7E1600D6B3DAB13BFE03D2B13BAA
:10BB8000FE0117AABA57DAA432220A81CDFA36C3C7
:10BB9000953B7AB7C2D83C7E220A81D6ACD8FE0744
:10BBA000D05F3AF2803DB37BCA364107835F21966E
:10BBB00031197856BAD023CD6A3BC501883BC543BD
:10BBC0004ACD7A4558514E234623C52A0A81C37C63
:10BBD0003BAF32F280CDFA361E24CAB832DA504674
:10BBE000CD9837D2573CFE262012CDFA36FE48CAF1
:10BBF000934AFE42CA034B1E02CAB832FEACCAF0D8
:10BC00003BFE2ECA5046FEADCA463CFE22CAFF3F4E
:10BC1000FEAACA383DFEA7CA633FD6B6D2683CCD5D
:10BC2000753BCD723529C9167DCD7C3B2A1581E542
:10BC3000CD7245CD6A3BE1C9CD5D3DE5EB22298161
:10BC40003AF280B7CC8745E1C90600074FC5CDFA67
:10BC50003679FE31DA8F3CCD753BCD72352CCD6B0C
:10BC60003BEB2A2981E3E5EBCDC842EBE3C3973CEC
:10BC7000CD3E3CE311523CD501F52F094E236669B8
:10BC8000E915FEADC8FE2DC814FE2BC8FEACC82BAE
:10BC9000C9F6AFF5CD6A3BCDAC37F1EBC1E3EBCDE7
:10BCA0008A45F5CDAC37F1C17921213FC2D33CA300
:10BCB0004F78A2E9B34F78B2E921EA3C3AF2801F0B
:10BCC0007A175F166478BAD0C3D93BEC3C79B71FBA
:10BCD000C1D1F5CD6C3B212E3DE5CAC445AF32F252
:10BCE00080D5CD83417E23234E2346D1C5F5CD8714
:10BCF00041CD9845F157E17BB2C87AD601D8AFBBA8
:10BD00003CD0151D0ABE2303CA163D3FC354453C13
:10BD10008FC1A0C6FF9FC35B45165ACD7C3BCD6A41
:10BD20003BCDAC377B2F4F7A2FCD213FC1C3883B12
:10BD30002BCDFA36C8CD72352C014F3DC5F6AF324A
:10BD4000F18046CD9837DAA432AF4F32F280CDFA87
:10BD500036DA793DCD9837DA863D4FCDFA36DA7A44
:10BD60003DCD9837D27A3DD624C2953D3C32F28003
:10BD70000F814FCDFA363A10813DCA423EF2A53DC1
:10BD80007ED628CA1A3EAF321081E550592A238147
:10BD9000CD6C35112581CA8A442A1D81EB2A1B816D
:10BDA000CD6C35CAD83D799623C2CD3D789623CA4D
:10BDB0000C3E23232323C3BF3DE1E3D5115A3CCDE1
:10BDC0006C35D1CA0F3EE3E5C50106002A1F81E5A7
:10BDD00009C1E5CD7032E1221F816069221D812BEE
:10BDE0003600CD6C35C2FE3DD173237223EBE1C921
:10BDF000322C81214032222981E1C9E52AF180E3F8
:10BE000057D5C5CDA037C1F1EBE3E5EB3C577EFE3E
:10BE10002CCA203ECD723529221581E122F1801EE7
:10BE200000D511E5F52A1D813E19EB2A1F81EBCDC6
:10BE30006C35CA7A3E7EB923C25C3E7EB8235E234F
:10BE40005623C2483E3AF180B7C2AD32F1444DCAE2
:10BE50008A4496CAD83E1E10C3B832110400F1CAF3
:10BE6000C137712370234FCD81322323220A817180
:10BE7000233AF1801779010B00D29D3EC103712353
:10BE80007023F5E5CD3546EBE1F13DC2953EF54237
:10BE90004BEB19DA9932CD8A32221F812B3600CD35
:10BEA0006C35C2BB3E03572A0A815EEB2909EB2B96
:10BEB0002B73237223F1DAFC3E474F7E2316E15E9B
:10BEC000235623E3F5CD6C35D2753EE5CD3546D10D
:10BED00019F13D444DC2DD3E2929C109EB2A1581E6
:10BEE000C92A1F81EB210000393AF280B7CA1C3FF2
:10BEF000CD8341CD83402A9F80EB2A08817D934FDB
:10BF00007C9A41501E0021F280730690C360453A2E
:10BF1000F08047AFC3223FCDB93FCDAB3F01913851
:10BF2000C5D5CD723528CD5D3DE5EB2B562B5EE1B9
:10BF3000CD6A3BCD723529CD7235B4444DE37123C2
:10BF400070C3F83FCDB93FD5CD3E3CCD6A3BE35EF3
:10BF50002356237AB3CAB0327E23666FE52A238143
:10BF6000E32223812A2781E52A2581E5212581D520
:10BF7000CDA145E1CD673B2BCDFA36C2A432E122FB
:10BF80002581E1222781E1222381E1C9E52AA180DF
:10BF9000237CB5E1C01E16C3B832CD7235A73E80F2
:10BFA000321081B647CD623DC36A3BCD6A3BCDEED0
:10BFB00046CDFE3FCD834101DE41C57E2323E5CD45
:10BFC0005940E14E2346CDF23FE56FCD7641D1C9D0
:10BFD000CD5940210481E5772323732372E1C92BD6
:10BFE000062250E50EFF237E0CB7CA1440BACA14CD
:10BFF00040B8C20540FE22CCFA36E323EB79CDF2FD
:10C000003F1104812AF6802229813E0132F280CD3F
:10C01000A445CD6C3522F680E17EC01E1EC3B83229
:10C0200023CDFE3FCD8341CD98451C1DC80ACD7D53
:10C0300035FE0DCCAC3903C34A40B70EF1F52A9F4B
:10C0400080EB2A08812F4F06FF0923CD6C35DA7764
:10C050004022088123EBF1C9F11E1ACAB832BFF59C
:10C06000015B40C52AF480220881210000E52A9F57
:10C0700080E521F880EB2AF680EBCD6C3501944009
:10C08000C2E8402A1B81EB2A1D81EBCD6C35CABB6F
:10C09000407E2323B7CDEB40C3A540C1EB2A1F81CF
:10C0A000EBCD6C35CA1141CD98457BE509B7F2BAA5
:10C0B00040220A81E14E0600090923EB2A0A81EB9E
:10C0C000CD6C35CABB4001DA40C5F6807E23235EC5
:10C0D000235623F0B7C8444D2A0881CD6C356069DA
:10C0E000D8E1E3CD6C35E3E56069D0C1F1F1E5D588
:10C0F000C5C9D1E17DB4C82B462B4EE52B2B6E264E
:10C10000000950592B444D2A0881CD7332E1712327
:10C110007069602BC38640C5E52A2981E3CDF03BD9
:10C12000E3CD6B3B7EE52A2981E5861E1CDAB83219
:10C13000CDEF3FD1CD8741E3CD8641E52A0681EBA6
:10C14000CD6D41CD6D4121853BE3E5C32040E1E369
:10C150007E23234E23466F2C2DC80A120313C37768
:10C1600041CD6B3B2A2981EBCDA141EBC0D5505984
:10C170001B4E2A0881CD6C35C29F41470922088198
:10C18000E1C92AF6802B462B4E2B2BCD6C35C022D5
:10C19000F680C901313FC5CD8041AF5732F2807E74
:10C1A000B7C901313FC5CDB641CAC13723235E238C
:10C1B000561AC93E01CDEF3FCDCB422A068173C14D
:10C1C000C32040CD7B42AFE34FE57EB8DAF0417843
:10C1D000110E00C5CD5940C1E1E523234623666811
:10C1E000060009444DCDF23F6FCD7641D1CD874158
:10C1F000C32040CD7B42D1D51A90C3E641EB7ECD22
:10C2000080420405CAC137C51EFFFE29CA3542CD8A
:10C2100072352CCDC842CD723529F1E301E841C514
:10C220003DBE0600D04F7E91BB47D843C9CDB64135
:10C23000CA69435F23237E23666FE5194672E3C50F
:10C240007EFE24C26A42CD934A180DFE25C2744276
:10C25000CD034B1803CD5046C1E170C9EBCD72350B
:10C2600029C1D1C543C9CDCB42328480CD8380C39F
:10C27000313FCDB542C34B80CDB542F51E002BCD2D
:10C28000FA36CAAB42CD72352CCDC842C1CD8380BF
:10C29000ABA0CAAC42C9CDC842328480324C80CDFA
:10C2A00072352CC3C842CDFA36CD673BCDA6377A5E
:10C2B000B7C2C1372BCDFA367BC9CDAC371AC331E3
:10C2C0003FCD673BCDAC37D5CD72352CCDC842D1F3
:10C2D00012C921C747CD9845C30343CD984521C115
:10C2E000D1CD724578B7C83A2C81B7CA8A4590D269
:10C2F0001D432F3CEBCD7A45EBCD8A45C1D1FE19CC
:10C30000D0F5CDAF4567F1CDC843B4212981F243C3
:10C3100043CDA843D289432334CAB3322E01CDDEA4
:10C3200043C38943AF90477E9B5F237E9A57237E0A
:10C33000994FDCB4436863AF4779B7C276434A5438
:10C34000656F78D608FEE0C25743AF322C81C9052D
:10C35000297A1757798F4FF26E43785C45B7CA89AF
:10C3600043212C818677D26943C878212C81B7FC80
:10C370009B4346237EE680A94FC38A451CC014C058
:10C380000CC00E8034C0C3B3327E835F237E8A57D5
:10C39000237E894FC9212D817E2F77AF6F90477DF6
:10C3A0009B5F7D9A577D994FC90600D608DAD7431F
:10C3B000435A510E00C3CA43C6096FAF2DC8791F37
:10C3C0004F7A1F577B1F5F781F47C3DA4300000077
:10C3D0008103AA561980F122768045AA3882CD4978
:10C3E00045B7EAC137212C817E01358011F30490D5
:10C3F000F570D5C5CD0343C1D104CD9F4421EC4395
:10C40000CDFA4221F043CD9148018080110000CD4A
:10C410000343F1CDC44601318011187221C1D1CD41
:10C420004945C82E00CD074579323B81EB223C813E
:10C430000100005058215443E5216044E5E52129DD
:10C44000817E23B7CA8C44E52E081F6779D27A44CF
:10C45000E52A3C8119EBE13A3B81891F4F7A1F574E
:10C460007B1F5F781F472D7CC26944E1C9435A5145
:10C470004FC9CD7A45012084110000CD8A45C1D134
:10C48000CD4945CAA7322EFFCD074534342B7E3225
:10C4900057802B7E3253802B7E324F8041EBAF4F43
:10C4A000575F325A80E5C57DCD4E80DE003FD2D742
:10C4B00044325A80F1F137D2C1E1793C3D1FFA8A0A
:10C4C00043177B175F7A175779174F297817473A21
:10C4D0005A8017325A8079B2B3C2C444E5212C8104
:10C4E00035E1C2C444C3B33278B7CA2B457D212C91
:10C4F00081AE80471FA878F22A45C68077CA8A4451
:10C50000CDAF45772BC9CD49452FE1B7E1F269435E
:10C51000C3B332CD954578B7C8C602DAB33247CD3A
:10C520000343212C8134C0C3B3323A2C81B7C83ABB
:10C530002B81FE2F179FC03CC9CD494506881100AD
:10C5400000212C814F70060023368017C35143CD44
:10C550004945F0212B817EEE8077C9EB2A2981E3C2
:10C56000E52A2B81E3E5EBC9CD9845EB22298160D3
:10C5700069222B81EBC92129815E2356234E234654
:10C5800023C911298106041A77132305C2A645C9B8
:10C59000212B817E07371F773F1F232377790737AA
:10C5A0001F4F1FAEC978B7CA4945215245E5CD494D
:10C5B0004579C8212B81AE79F8CDDE451FA9C92365
:10C5C00078BEC02B79BEC02B7ABEC02B7B96C0E153
:10C5D000E1C9474F575FB7C8E5CD9545CDAF45AEEB
:10C5E00067FC15463E9890CDC8437C17DC9B4306FC
:10C5F00000DCB443E1C91B7AA33CC00BC9212C81E8
:10C600007EFE983A2981D07ECDF14536987BF5792A
:10C6100017CD5143F1C921000078B1C83E1029DA85
:10C62000753EEB29EBD24B4609DA753E3DC23D46DD
:10C63000C9FE2DF5CA5C46FE2BCA5C462BCD69436C
:10C6400047575F2F4FCDFA36DAAD46FE2ECA8846E1
:10C65000FE45C28C46CDFA36CDA03CCDFA36DACFB7
:10C660004614C28C46AF935F0C0CCA6446E57B90BF
:10C67000F4A546F29B46F5CD9144F13CC28F46D1DC
:10C68000F1CC7245EBC9C8F5CD3245F13DC9D5575E
:10C69000788947C5E5D5CD3245F1D630CDC446E1E0
:10C6A000C1D1C36446CD7A45CD5B45C1D1C30343F7
:10C6B0007B0707830786D6305FC37A46E5213C3285
:10C6C000CD4040E1EBAF0698CD6045213F40E521EC
:10C6D0002E81E5CD49453620F2FC46362D233630F5
:10C6E000CAB247E5FC7245AFF5CDB8470143911199
:10C6F000F84FCDC445B7E22947F1CDA646F5C30BA7
:10C7000047CD9144F13CF5CDB847CDF1423CCDF158
:10C7100045CD8A45010603F1813CFA4547FE08D222
:10C7200045473C473E023D3DE1F511CB4705C2562A
:10C7300047362E2336302305362ECC9F45C5E5D50A
:10C74000CD9545E1062F047B965F237A9E5723798A
:10C750009E4F2B2BD26547CDA84323CD8A45EBE1D5
:10C760007023C10DC2564705CA96472B7EFE30CABC
:10C770008A47FE2EC49F45F1CAB547364523362B5E
:10C78000F2A647362D2F3C062F04D60AD2A847C65C
:10C790003A237023772371E1C901749411F723CDF3
:10C7A000C445B7E1E22047E900000080A0860110FF
:10C7B0002700E803006400000A0000010000217265
:10C7C00045E3E9CD7A4521C747CD8745C1D1CD495C
:10C7D0004578CA3048F2FB47B7CAA732B7CA6A439E
:10C7E000D5C579F67FCD9545F21848D5C5CD1C46FF
:10C7F000C1D1F5CDC445E17C1FE1222B81E1222985
:10C8000081DCDD47CC7245D5C5CDFD43C1D1CD3EE0
:10C8100044CD7A45013881113BAACD3E443A2C8162
:10C82000FE88D22545CD1C46C680C602DA2545F5D0
:10C8300021EC43CDF442CD3544F1C1D1F5CD0043D7
:10C84000CD7245217048CDA048110000C14AC33EB9
:10C850004408402E9474704F2E776E02887AE6A0BA
:10C860002A7C50AAAA7EFFFF7F7F00008081000003
:10C870000081CD7A45113C44D5E5CD9545CD3E446A
:10C88000E1CD7A457E23CD874506F1C1D13DC8D59E
:10C89000C5F5E5CD3E44E1CD9845E5CD0343E1C383
:10C8A000A948CD4945215E80FA2249217F80CD8764
:10C8B00045215E80C886E6070600772387874F09F3
:10C8C000CD9845CD3E443A5D803CE6030600FE012E
:10C8D00088325D8021264987874F09CDF442CD9566
:10C8E000457B59EE4F4F36802B463680215C803495
:10C8F0007ED6ABC21949770C151CCD5443217F80DD
:10C90000C3A145772B772B77C3FD4868B14668995B
:10C91000E9926910D17568218049CDF442CD7A45FC
:10C9200001498311DB0FCD8A45C1D1CD9F44CD7A1A
:10C9300045CD1C46C1D1CD0043218449CDFA42CD1D
:10C94000494537F26C49CDF142CD4945B7F5F4720E
:10C9500045218449CDF442F1D47245218849C391DF
:10C9600048DB0F49810000007F05BAD71E86642688
:10C97000998758342387E05DA586DA0F4983CD7AFD
:10C9800045CD3C49C1E1CD7A45EBCD8A45CD36490F
:10C99000C39D44CD4945FCDD47FC72453A2C81FEE0
:10C9A00081DACF490100815159CD9F4421FA42E5F6
:10C9B00021D949CD9148218049C9094AD73B7802FC
:10C9C0006E847BFEC12F7C74319A7D843D5A7DC874
:10C9D0007F917EE4BB4C7E6CAAAA7F00000081C9D7
:10C9E000D7C93E0CCFC9CDC8427B328780C9CD673D
:10C9F0003BCDAC37ED538B80ED538D80C9CDAC373B
:10CA0000D5E146237EC3223FCD673BCDAC37D5CDA4
:10CA100072352CCD673BCDAC37E3732372E1C9CDC2
:10CA20006A3BCDAC37C5212E817AFE00280CCD762D
:10CA30004A78FE302802702371237BCD764A7AFE35
:10CA400000200578FE30280270237123AF7723770A
:10CA5000C1212E81C3D03F47E60FFE0A3802C60728
:10CA6000C6304F780F0F0F0FE60FFE0A3802C607C9
:10CA7000C63047C9EB210000CDAC4ADACC4A1805D4
:10CA8000CDAC4A381F29292929B56F18F3131AFE8E
:10CA900020CAAC4AD630D8FE0A3805D607FE0AD8D6
:10CAA000FE103FC9EB7A4BE5CD213FE1C91E26C3FD
:10CAB000B832CD6A3BCDAC37C5212E810611057841
:10CAC000FE012808CB13CB1230F41804CB13CB1281
:10CAD0003E30CE0077230520F3AF772377C1212E98
:10CAE00081C3D03FEB210000CD204BDA2E4BD63056
:10CAF00029B56FCD204B30F6EB7A4BE5CD213FE1E8
:10CB0000C9131AFE20CA204BFE30D8FE323FC91E80
:10CB100028C3B8320E01F7C93E00329280C3142FE9
:10CB2000F5A0C1B83E00C9CD7D35C3A239FFFFFFD6
:10CB3000FFFFFFFFFFFFFFFFFFFFFFFFFFFFFFFF05
:10CB4000FFFFFFFFFFFFFFFFFFFFFFFFFFFFFFFFF5
:10CB5000FFFFFFFFFFFFFFFFFFFFFFFFFFFFFFFFE5
:10CB6000FFFFFFFFFFFFFFFFFFFFFFFFFFFFFFFFD5
:10CB7000FFFFFFFFFFFFFFFFFFFFFFFFFFFFFFFFC5
:10CB8000FFFFFFFFFFFFFFFFFFFFFFFFFFFFFFFFB5
:10CB9000FFFFFFFFFFFFFFFFFFFFFFFFFFFFFFFFA5
:10CBA000FFFFFFFFFFFFFFFFFFFFFFFFFFFFFFFF95
:10CBB000FFFFFFFFFFFFFFFFFFFFFFFFFFFFFFFF85
:10CBC000FFFFFFFFFFFFFFFFFFFFFFFFFFFFFFFF75
:10CBD000FFFFFFFFFFFFFFFFFFFFFFFFFFFFFFFF65
:10CBE000FFC3064CC3274C3180FE211480220080F5
:10CBF000CDB353116C5397CDA55311815397CDA548
:10CC00005311965397CDA5533180FECDB353115890
:10CC10005397CDA553213B4C2202802100002208CE
:10CC2000802204803E3ECDA34CD51137FDCDDA5293
:10CC3000CD7F4D7CB5C1CA384D1B7C121B7D12C502
:10CC4000D57993F5CDF44CD5C27A4CD5CD124DC1E2
:10CC50002A0080CD1E4D6069220080C12A0080F12B
:10CC6000E5FE03CA274C856F3E008C671100FDCDA1
:10CC70003B52D22953220080D1CD294DD1E1CD1E86
:10CC80004DC3434CCDB5531137FDCDC153CAA94C4B
:10CC9000FE0ACAA94CB7CAA94CFE08CAD34CFE1852
:10CCA000CAEC4CCDB553CDCA531213FE0DC87BFE52
:10CCB00087C2A94C7BFE37CAA94C1B3E08CDB55391
:10CCC0003E20CDB5533E08CDB553C3A94CCDB3538B
:10CCD0003E40C3A34C7CB7FA2253111480E52A00CE
:10CCE000802BCD3B52E1D81A9547131A9CDA134D8D
:10CCF0001BB0C913131AFE0DC2134D13C3FC4CCD48
:10CD00003B52C81A021303C31E4D7892C2314D79AB
:10CD100093C81B2B1A77C3294D21864DCD7F4DD546
:10CD20001A13FE2ECA5C4D23BECA3F4D3E7F1BBE6A
:10CD3000DA634D23BED2524D23D1C33E4D3E7F23F5
:10CD4000BED25E4D7E236EE67F67F1E9E3CD7F4D77
:10CD5000BE23CA7B4DC54E060009C11B1323E3C980
:10CD60001AFE20C013C37F4D4C495354CF50525527
:10CD70004ED0CD4E4557CDE3425945CDE04E4558B6
:10CD800054CEA24C4554D09B494E505554D03F49A7
:10CD900046CF3C474F544FD0BC474F535542CDF23E
:10CDA00052455455524ECE1452454DCF44464F52E3
:10CDB000CE2F5052494E54CF7D53544F50CDECD0CE
:10CDC000930E01F7CD0551211480220080CD05512D
:10CDD000C3274CCDF74ECD0E51D5CDF44CC22353C5
:10CDE0002A0280E52A0480E52100002208803922F9
:10CDF0000480C3DC50CD05512A04807CB5CA1B5386
:10CE0000F9E1220480E1220280D1CD204FC3EC5011
:10CE1000CDF74ECDA6502B220880213E4EC33B4D70
:10CE2000544FCE45D31BCD0E51220C8021504EC302
:10CE30003B4D53544550CE59CE5FCD0E51C3624E3B
:10CE4000210100220A802A0280220E80EB2210801B
:10CE5000010A002A0880EB6068393E097E23B6CAC1
:10CE60009B4E7E2BBAC27A4E7EBBC27A4EEB21001D
:10CE70000039444D210A0019CD294DF92A1080EBC3
:10CE8000C3EC50CDA652DA1B53220680D5EB2A08FC
:10CE9000807CB5CA1C53CD3B52CAC54ED1CD204F64
:10CEA0002A0680C3AB4E5E23562A0A80E519EB2A78
:10CEB00008807323722A0C80F1B7F2DD4EEBCD357A
:10CEC00052D1DAF14E2A0E802202802A1080EBC362
:10CED000EC50CD204FC3EC5021A5FDCD2952C139D6
:10CEE000D229532A08807CB5CA1D4F2A1080E52A12
:10CEF0000E80E52A0C80E52A0A80E52A0880E5C52F
:10CF0000C9C1E12208807CB5CA3A4FE1220A80E11A
:10CF1000220C80E1220E80E1221080C5C9CD0E5185
:10CF20007CB5C2E350210000CD144DD2DC50C327A4
:10CF30004CCDDA52CD0551CDF44CDA274CCD684FAB
:10CF4000CDC153CDFC4CC3594F1A6F131A67130E42
:10CF500004CDF34F3E20CDB55397CDA553C90E0652
:10CF6000CD6B4D3B06CDB353C3E350CD6B4D0D069A
:10CF7000CDB353C3D350CD6B4D2307CD0E514DC30D
:10CF8000A74FCDC34FC3B84FCD6B4D2C06CDF2503C
:10CF9000C3954FCDB353C3EC50CD0E51C5CDF34F18
:10CFA000C1C3A74FCD6B4D22053E22C3D44FCD6BDD
:10CFB0004D270E3E27CDA553FE0DE1CAD350C3EE3B
:10CFC0004FCD6B4D5F0D3E8DCDB553CDB553E123A8
:10CFD0002323E9C9D5110A00D5420DCD2652F2030B
:10CFE00050062D0DC5CD095278B1CA1450E32DE578
:10CFF0006069C30450C10D79B7FA23503E20CDB506
:10D0000053C3155078CDB5535D7BFE0AD1C8C630E9
:10D01000CDB553C328502A0680F9E1220280D1D130
:10D02000D5CDC34FC34F50CDA652DA8A50C36150FD
:10D03000D5CDA652DA1B531A4F9712D1CDA55379ED
:10D040001B12D5EB2A0280E5213F502202802100ED
:10D050000039220680D53E3ACDA34C1137FDCD0EC6
:10D0600051D1EB732372E1220280D1F1CD6B4D2CB3
:10D070005CC33F50CDFB50FE0DCAEC50CDA650CD49
:10D080006B4D2C49C39B50CDA652DA1B53E5CD6B9B
:10D090004D3D3DCD0E51444DE1712370C9CD0E5132
:10D0A000D5CD0551CDF44CC22353F1C3DC50CD0591
:10D0B00051111480210000CDFC4CDA274CEB2202E8
:10D0C00080EB1313CDC153219B4DC33B4DCDF2508B
:10D0D000C31B53CD6B4D3B04F1C3E350CD6B4D0DE2
:10D0E00004F1C3D350C9CD7F4DFE0DC8C31B53CD32
:10D0F0006D51E5211751C33B4D3E3DD12F3C3ED1F3
:10D10000353ED13B3DD14A3C3DD1423CD150D15638
:10D11000CD5851D86FC9CD5851C86FC9CD5851C8D5
:10D12000D86FC9CD58516FC8D86CC9CD5851C06F90
:10D13000C9CD5851D06FC9E1C979E1C1E5C54FCD1D
:10D140006D51EBE3CD3552D12100003E01C9CD6BCD
:10D150004D2D06210000C39151CD6B4D2B00CDA963
:10D1600051CD6B4D2B07E5CDA951C39851CD6B4DDA
:10D170002D8DE5CDA951CD2952EBE37CAA7A19D1A9
:10D18000FA8051ACF28051C32253CD4152CD6B4D48
:10D190002A2BE5CD41520600CD2652EBE3CD265297
:10D1A0007CB7CACA517AB2EBC223537D2E00B7CAEC
:10D1B000FB5119DA23533DC2D151C3FB51CD6B4D05
:10D1C0002F3DE5CD41520600CD2652EBE3CD265250
:10D1D0007AB3CA2353C5CD09526069C1D17CB7FA6D
:10D1E000225378B7FC2952C3AC51E56C2600CD140C
:10D1F00052417DE1670EFF0CCD1F52D2165219C964
:10D200007D936F7C9A67C97CB7F07C2F677D2F6F09
:10D210002378EE8047C97CAAF23B52EB7CBAC07DF2
:10D22000BBC9214652C33B4D524E44D25941425391
:10D23000D28253495A45D28ED29BCD0D537CB7FA38
:10D240002253B5CA2253D5E52A12807CE60767111E
:10D25000004C195E2356221280E1EBC5CD0952C164
:10D26000D123C9CD0D53CD26527CB4FA2253C92AFD
:10D270000080D5EB2100FDCD1F52D1C9CDA652DAD9
:10D2800007537E23666FC9CD7F4DD640D8C2CA52A0
:10D2900013CD0D5329DA2253D5EBCD8E52CD3B520F
:10D2A000DA2A532100FDCD1F52D1C9FE1B3FD813EE
:10D2B0002100FD07856F3E008C67C921000044CD29
:10D2C0007F4DFE30D8FE3AD03EF0A4C2225304C5B2
:10D2D000444D292909291A13E60F856F3E008C67F2
:10D2E000C11AFA2253C3E152CDDA5278B7C0CD6BDE
:10D2F0004D2809CD0E51CD6B4D2901C9D511605373
:10D30000C32D53D5115B53C32D53D511665397CD00
:10D31000A553D11AF597122A0280E57E23B6D1CA09
:10D32000274C7EB7FA3550CD684F1BF1123E3FCDEA
:10D33000B55397CDA553C3274C4F4B0D484F573F7F
:10D340000D574841543F0D534F5252590D50414CC7
:10D350004F20414C544F2054494E5920424153498B
:10D36000430D504F525441424C45205A38302056BC
:10D37000455253494F4E0D5342435A38302045448D
:10D380004954494F4E0D471A13B8C8CDB553FE0D39
:10D39000C2A653C93E0DCFFE0DC03E0ACDB5533EC9
:10D3A0000DC9DFC8D7FE1BC0C3274CFE61D8FE7B6A
:10D3B000D0E6DFC9FFFFFFFFFFFFFFFFFFFFFFFF1B
:10D3C000FFFFFFFFFFFFFFFFFFFFFFFFFFFFFFFF6D
:10D3D000FFFFFFFFFFFFFFFFFFFFFFFFFFFFFFFF5D
:10D3E000FFC3DA5AC35054C3BD5AC3F45AC3F65AE2
:10D3F000C3D055C3C156C3D056C3ED56C35357C34C
:10D400005258C35E58C37B58C3AA58C3A659C3D346
:10D4100059C3EA59C3745AC37F5AC3805AC3B35A13
:10D42000210082227E8122508136FF214574CDD099
:10D430005521BFFE22588131008221C4812288817A
:10D44000213C74CDD0552106812206812A527422B6
:10D450003081210080223881AF77CDF458D2C85472
:10D46000224281CD5756CAA554CD0455FAA554225F
:10D47000428123237EFE20C2AB54CD3E56C2B1541E
:10D48000237EA7C38B54CDB35AC35654CD1955C36D
:10D490008B542A4281227281CD0A55FAA5540E720C
:10D4A000CDAF55CA8854C39154227481EB224A816E
:10D4B000EB7EFE2FC21F55CD0455CDB35A7EA7FA81
:10D4C0005654CDE754C3D95422428156235EE50E0B
:10D4D00005CDEA59E123C3D0552A428123237EB7E3
:10D4E000C2FC5423C92A7E812242817EA7F8EB2AFE
:10D4F0004A81EB237E932B7E9AD0CDF854C30755F7
:10D500002A4A817AA7FAA554B3CAD6542A50817EF2
:10D510003CC2A554CD0455FA5E5546236E600E4AB2
:10D52000CDAF55C25E55CDF854EB2A4281EB0E507B
:10D53000CDAF557E122313C24D55EB2B2250812ABD
:10D5400074811E037EB7CAA9551C237EB7C26855D5
:10D55000572A508119E5EB2A5881CD5258D2A5544B
:10D560002A5081EBE1225081EB232B7E121B0E42CD
:10D57000CDAF55C28955EB2A4A81EB722373EB2A52
:10D5800074817E231312B7C2A155310082C379542E
:10D5900006810ABDC0030ABCC92187813600E52186
:10D5A0000A00CDB2587DC630E12B777BB2C2BD55A3
:10D5B000C9AF477E23B8CADE55CD0954C3D2553A08
:10D5C0000080B7C0CD0C54D0CDF25AFE1BCAA55472
:10D5D000FE20C0C3F25AFE20CA3E565797324A81F7
:10D5E000324B81237E2B5FE6DF7AC22A56FE5DC274
:10D5F0001756CD4759C35456FE40C22A56232246D9
:10D600008197110000CD5D56C35456FE22C2365696
:10D6100023CDD155C35756FE2FC24256CDB35A2300
:10D62000C35756227281CD7A56CD1759CDDE552A71
:10D630004A817CB5C02A46817EA7C2F555C9EB2236
:10D640006A81EBCD7159216A81C37A59D523CD8680
:10D6500056CD5D56D1C93E3DC3415A7E23E6DFCA51
:10D660007556FE1DC27A56CDA8567EE6DFCAA25672
:10D67000FE09CAA656FE0CCA6B56CDCA572A5A8155
:10D68000C38956224681C923C9CDF758D0FE2DC281
:10D69000B85623CDA856C3AA58FE2BC2C75623CDD1
:10D6A000A8567AA7FAAA58C9FE23C2D55623CDA8F0
:10D6B000567AA7C3EC57FE25C2E45623CDA856EBF5
:10D6C0002A4E81EBC9FE27C20B5723CDA856E5D5BC
:10D6D0002A528111093DCD5E5813EB225281EBE1B4
:10D6E0005A1600CD5E585A1600E113C9FE22C21721
:10D6F000571600235E2323C9FE24C24E571600CDC1
:10D700002957DA3F57CD06545FC9237ED630DA3D1C
:10D7100057FE0AD8D607FE0ADA3D57FE10C93FC9A0
:10D720005FCD2957D0EB29292929EB83C33F57FE29
:10D730003FC25D57E5CD9C5ACD8656E123C9FE28F0
:10D74000C2665723C38656CDB057FE3ACA7757CD27
:10D7500091575E2356C37D57CD815716005E2A70C0
:10D7600081C9CD9F573A7681835F3A77818A57C3C3
:10D77000C357FE28C2BA57CD9F57EB29EBC3845736
:10D78000CDBA574E2366692276812A708123C386DB
:10D79000565E237EFE4157F2B157C916817BE63FA4
:10D7A000C602875F227081EB7CB5C9D556235ED552
:10D7B0007BD63DCAD9573DC2DA5723CDA856225A47
:10D7C00081EBD17AFE3DC2FA57D1CD5258C21D58D5
:10D7D0007BB7C21D58110100F6FFC9FE3CC2235899
:10D7E0007BFE3DD1CA1158FE3EC21758CDE957C342
:10D7F0003E58CD3558C33E58CD5258FAF457110013
:10D8000000E600C9FE3EC243587BFE3DD1C23558FA
:10D81000CD1758C33E58CD5258FA1D58CDEC577B02
:10D82000EE015FC9D1FE2BC24D58EB19EBC9FE2D9D
:10D83000C259587B955F7A9C57C9FE2AC27658D543
:10D840000E10110000E3CDE158E3D26F58EB19EB55
:10D85000290DC26458C1C9FE2FC2415A06007CB7C7
:10D86000C28B58B5C294583E2FC3415AF294580403
:10D87000EBCDAA58EB7AB7F29D5805CDAA58CDB298
:10D8800058224E812A68813E00B8C87A2F577B2FD4
:10D890005F13C90E000C29D2B458CDE258E521001F
:10D8A00000E3CD52583FDACC58EB19EBB7E37D17C4
:10D8B0006F7C1767E30DCADE58CDE158C3C158E14C
:10D8C000EBC9B77C1F677D1F6FC97EFE3A37F0FE3C
:10D8D0003037F83FC9CDAB5ACDE958D8EB2100001D
:10D8E0001AD6304F060009444D13EBCDE9583FD00E
:10D8F000EB29290929C3FF582A7281D57EFE40C22F
:10D90000625923235ECDBA57D1CD5159D5CD555942
:10D91000E1CD1758C24259CD475906062188817E6C
:10D920009077C906FCC33B592E46CD4E592E42CDA9
:10D930005559732372C94D2A88815E235623228844
:10D940008169C9FE21C28859D1EB224A81EBCDC63B
:10D9500057C8214281CD7A592146815E23562A88B3
:10D96000812B722B73228881C9FE3BC29859D1CD7D
:10D97000C657C0310082C3AB54FE3EC2A059D1EBA2
:10D98000E9FE2EC2B259D1531415C83E20CD095418
:10D99000C3A859FE26C2CD59237E2BFE3DC2CD59C8
:10D9A000D1CDC657C02A7E8122508136FFC9FE24C0
